:020000041000EA
:10000000002000083F0A00100D000000A10A0010A7
:1000100000000000000000000000000000000000E0
:100020000000000000000000000000009D0A001019
:1000300000000000000000009D0A00109D0A001052
:100040009D0A00109D0A00109D0A00109D0A0010D4
:100050009D0A00109D0A00109D0A00109D0A0010C4
:100060009D0A00109D0A00109D0A00109D0A0010B4
:100070009D0A00109D0A00109D0A00109D0A0010A4
:1000800010B5054C237833B9044B13B10448AFF3D2
:1000900000800123237010BD8401000800000000CF
:1000A000E012001008B5034B1BB103490348AFF33E
:1000B000008008BD0000000088010008E012001068
:1000C000014B1860704700BFA0010008034B1B687C
:1000D00003B17047014B1860FBE700BFA4010008A3
:1000E000F0B4049D234C2468002C40D0214C276898
:1000F0002C2400FB04F43819DEB23E51C3F307246C
:1001000044601B0C83601C4B1B6893F833309E4289
:1001100000D301BE184B1B681C6AB3F8BA7007FB0A
:1001200006440461446893F834309C4200D301BE15
:10013000114B1B681B6A803403EB441343618468D2
:10014000260C360406B101BE260C360406B101BEEB
:100150001FFA84FC4CEA04449C60C26101620023E3
:10016000836115B1B5F900308381F0BC704701BEE1
:10017000BCE700BFA4010008A001000830B58FB0A3
:100180000446002847D0A369072B00D901BEE36AC3
:10019000002B42D0236B002B41D00DF11C0C04F13D
:1001A000140EBEE80F00ACE80F00DEF80030CCF80B
:1001B00000300DF1080CA646BEE80F00ACE80F00B9
:1001C000DEF80030CCF80030079B1733ADF8303044
:1001D000089B0D930CAD00950B9BA26AE16A0A98EF
:1001E000FFF77EFF00210091069B0A460598FFF766
:1001F00077FF216B284600F055F9BDF93030002B10
:1002000007DB03F01F015B0901228A40054941F821
:1002100023200FB030BD01BEB5E701BEBAE701BE75
:10022000BBE700BF00E100E070B582B0002301939E
:10023000044628B323692BB363692BB3236A2BB31A
:100240006369DD682A0C0BD02A0C12041A601B6843
:1002500020691D4B1B68D3F8BC301B58002B17DBE3
:10026000ADB24DB163691D601B68636A3BB39847CB
:10027000002363620023A36163691B6802B070BD41
:1002800001BED7E701BED7E701BED7E701BED7E77A
:1002900001A900F051F860B9019803681E0CDBB2A7
:1002A000E2699A4206D9226A52F8233013B198477C
:1002B00000E000263146206900F018F8D0E7A36A74
:1002C000002BD7D09847D5E7A001000808B5064B0A
:1002D0001B683BB1044B1B682C2202FB0030FFF76C
:1002E000A3FF08BD01BEF5E7A4010008084B1B6889
:1002F000D3F8BC301B58002B07DA0B0C1B0403B1DE
:1003000001BE89B24160002070470248704700BFBB
:10031000A001000801008A000368002B08DAC2600F
:100320000B0C1B0403B101BE89B281600020704731
:100330000048704701008A000A4651B1074B1B680C
:10034000D3F8BC301B58002B05DAC36813600020BB
:10035000704701BEF2E70248704700BFA0010008E5
:1003600001008A001E4B1B6893F83330834233D957
:1003700070B50C46002931D00B6813F01F0F01D067
:10038000184870BD164B1B6893F83330984200D361
:1003900001BE134B1B681D6AB3F8BA3003FB00554E
:1003A000114E35602268D2080021606800F00AFF13
:1003B00000212846FFF79AFF224600213068FFF708
:1003C000ABFF08B10948DCE700213068FFF78EFF7A
:1003D0000028D6D00548D4E7024870470148D0E746
:1003E000A001000803018A00A801000801018A0099
:1003F00010B50B4614461AB1E4B1ABB90E4810BDA6
:100400000029F9D10D4A126892F83320904200D3A6
:1004100001BE0A4A11680A6AB1F8BA1001FB00204D
:10042000074A10601846EAE706490B604C60FFF780
:1004300099FFE4E70048E2E703018A00A001000811
:10044000A8010008D4000008074AD2F8803123F040
:10045000404343F08043C2F88031D2F8803143F00A
:100460000043C2F880317047000026400A4B9A686A
:100470000A4B9A4204D01030094B53F820007047C1
:1004800039B100F11003054A52F8230042F8231055
:10049000704701BEF5E700BF00ED00E00000000876
:1004A0000000001038B308B584464368072B00D914
:1004B00001BEBCF90030DCF80420002B0EDB520139
:1004C000D2B203F1604303F5614383F800230B4B81
:1004D0009A680B4B9A4208D0002008BD03F00F0326
:1004E0005201D2B20748C254F1E7BCF90000FFF74D
:1004F000BDFF0020F1E70448704700BF00ED00E0B9
:100500000000000814ED00E001005600044B1B68D9
:100510001A68D3F88830D058C0F30720704700BF5E
:10052000A0010008034B1B681A68D3F88830D05824
:10053000000E7047A0010008064B1B6893F840307E
:10054000834200D801BEE030034B53F8200000F096
:100550000F007047A001000800002640064B1B68F2
:1005600093F84030834200D801BEE030034B53F88B
:100570002000C0F301107047A001000800002640D1
:10058000024B1869C0F38000704700BF000027408D
:100590000020704700207047014B1868704700BF6B
:1005A000AC010008074BD3F8303503F00303032BED
:1005B00005D0044BD3F8300500F00100704702204D
:1005C000704700BF0000264008B5FFF7EBFF022888
:1005D00001D0002008BD014B1868FBE7B0010008FE
:1005E00002460C4B1B6893F83E30834200D801BE94
:1005F00002F1D003084951F8230000F00700042855
:1006000000D07047C03251F8220000F01F0040F4C3
:100610008070F6E7A00100080000264008B5284BCE
:100620001B6893F83E30834200D801BEFFF7D8FF25
:1006300003280DD9B0F58A7F40D2B0F5887F0FD35B
:10064000A0F58870032835D8DFE800F0151F3127A2
:10065000032803D8DFE800F03006090C00202CE066
:1006600000202AE0FFF798FF27E0FFF7ADFF24E026
:10067000FFF78EFF21E0134BD3F80C35002B01DB85
:1006800000201AE04FF4004017E0FFF779FF08B9A7
:10069000002012E04FF400400FE00A4BD3F83C3545
:1006A000002B01DB002008E04FF4004005E0FFF7DD
:1006B00071FF02E0002000E0034808BD0020FCE7D5
:1006C000A00100080000264000127A00024BD3F877
:1006D0008005C00F704700BF00002640034638B3B6
:1006E0001449D1F88025C2F311001860C2F30062EA
:1006F000DA71D1F88425C2F30C009880C2F3084265
:100700001A81D1F8882502F00F009872C2F3031005
:10071000D872C2F30C209881C2F301729A73D1F897
:100720008C25C2F302219971C2F308421A827047E4
:1007300001BED5E7000026400138074B1B6893F83F
:100740003F30834200D801BE00F5C070034B53F820
:100750002000C00F704700BFA00100080000264025
:1007600001380F4B1B6893F83F30834215D900F5D1
:10077000C0700C4B53F8203003F07F020A70C3F3B3
:1007800004224A70C3F304428A70C3F3C062CA7081
:10079000C3F301730B71002070470348704700BF1B
:1007A000A00100080000264001004A0070B586B094
:1007B00000230193029303930493059301A8FFF789
:1007C0008DFFFFF783FF38B19DF81230022B01D067
:1007D000012102E0002100E00021019DBDF8084058
:1007E00020469DF80B3083B1022681B184B10020F0
:1007F000FFF714FFA0FB0501A4FB06235408001912
:1008000041F1000100F05CFB02E00126EDE7002071
:1008100006B070BD254B1B6893F83F20002A43D0DB
:10082000F0B583B0044658B193F83E30834200D807
:1008300001BE1E4B1B6893F83F30A34202D200203A
:1008400003B0F0BD002300938DF8043069462046C4
:10085000FFF786FF2046FFF76FFF38B19DF80430A1
:10086000022B01D0012302E0002300E000239DF8C9
:1008700000709DF8015028469DF8026093B1002D4C
:10088000DED00EB93046DBE72046FFF7C7FEA0FBFF
:100890000771A5FB06235008381841F1000100F04C
:1008A0000FFBCDE70020CBE700207047A001000838
:1008B00010B504460D4B1B6893F83E30834200D8B8
:1008C00001BE4CB1094B1B6893F83F30A34208D2DC
:1008D0002046FFF7A3FE10BDFFF768FF0028FAD1FE
:1008E000F6E72046FFF796FFF8E700BFA0010008F3
:1008F00070B50646FFF732FE0446012585403046B6
:10090000FFF71AFEFFF7D4FF00EB5500E04070BD83
:1009100008B50020FFF7DAFC08BD704710B50020CD
:10092000FFF7E6FF00B910BD0446114B1860FFF752
:10093000F9FD0130B4FBF0F40E4B1C60FFF7E6FD4F
:100940000130B4FBF0F40C4B1C60013C0B4BA3FBDF
:1009500004239B0C01330A4A13700A4BA3FB0423A4
:100960009B090133084A1360DB03084A1360DAE786
:1009700084000008880000088000000883DE1B4314
:1009800094000008D34D6210900000088C0000080D
:1009900010B52348FFF794FB224CD4F8803523F0A0
:1009A0000043C4F88035D4F8803323F03003C4F812
:1009B00080334FF08073C4F880351B4BC4F8843506
:1009C0004FF42053C4F88835FF23C4F88C35FFF763
:1009D0003BFDD4F8803123F00103C4F88031FFF7E8
:1009E0009CFFFFF79BFF114B1A68116AB2F8BA30EF
:1009F000C3EBC3030B440020D860116AB2F8BA30CD
:100A0000C3EBC3030B445860094A80210320FFF75E
:100A1000EFFC0848FFF75AFB0748FFF7AFFB10BD94
:100A2000EC1100100000264001000200A0010008A7
:100A3000DC000008B4010008AC1200107047FFF79A
:100A4000FDFF72B60F4C104DAC4209DA21686268A6
:100A5000A368043B02DBC858D050FAE70C34F3E734
:100A60000A490B4A0020521A02DD043A8850FCDC85
:100A7000084809490860BFF34F8FFFF789FF00F06E
:100A80000BFAFEE7EC1200100413001084010008BA
:100A9000340300080000000808ED00E0FEE7FEE770
:100AA00000B504207146084202D0EFF3098002E04D
:100AB000EFF30880043000F08BF9FEE710B507294A
:100AC00000D901BE32F01F0300D001BE164B1B68D7
:100AD0009C69001BC0095B694FEA001C03EB001016
:100AE000032910D853F80C00C9004FF01F0E0EFA5E
:100AF00001FE20EA0E0002F01F0202FA01F101439A
:100B000043F80C1010BD04394368C9004FF01F0CA6
:100B10000CFA01FC23EA0C0302F01F0202FA01F1B5
:100B200019434160EEE700BFA0010008072900D982
:100B300001BE012A00D901BE012303FA01F10AB95D
:100B40004160704781607047072900D901BE0123C9
:100B500003FA01F1C160704700B5072900D901BE51
:100B600032F00F0303D1012A01D0092A00D101BEBE
:100B700089000A4B1B6893F881E05EF800304FF063
:100B80000F0C0CFA01FC23EA0C0302F00F028A405E
:100B90001A434EF800205DF804FB00BFA0010008D6
:100BA00000B5072900D901BE012A00D901BE0A4BB0
:100BB0001B6893F882E05EF800304FF0010C0CFAED
:100BC00001FC23EA0C0302F001028A401A434EF8AA
:100BD00000205DF804FB00BFA0010008082900D92F
:100BE00001BE012A00D901BE83694FF0010C0CFA45
:100BF00001FC23EA0C0302F001028A401A438261DD
:100C00007047000000B5082900D901BE032A00D9A9
:100C100001BE4900094B1B6893F880E05EF8003084
:100C20004FF0030C0CFA01FC23EA0C0302F0030260
:100C30008A401A434EF800205DF804FBA00100082A
:100C4000002800F0A280F8B50D4614460646002A9A
:100C500000F09D80072900D901BE2368012B00D92F
:100C600001BE636833F00F0203D1012B01D0092BC1
:100C700000D101BE237A33F01F0300D001BEE36828
:100C8000032B00D901BE2369012B00D901BE636982
:100C9000012B00D901BE236A012B00D901BE636A72
:100CA000012B00D901BEA36A012B00D901BEE36A62
:100CB000032B00D901BE236B072B00D901BEE369CA
:100CC000032B00D901BEA369012B00D901BE01216C
:100CD000A9406A0002F1100C032303FA0CF3194334
:100CE0002C4F3B6893F88300835923EA0101A369E1
:100CF00003F00103AB400B43E26902F0030202FA86
:100D00000CF213438351227A29463046FFF7D6FE70
:100D1000626829463046FFF71FFFE26829463046E1
:100D2000FFF770FF226929463046FFF757FF6269D7
:100D300029463046FFF734FF3B6893F8841070581B
:100D400020F0FF00236A03F00103626A520002F000
:100D500002021343A26A920002F004021343E26A01
:100D6000D20002F018021343226B5201D2B2134395
:100D7000AA0002F47E72934003437350226829460E
:100D80003046FFF7D3FE0020F8BD03487047024805
:100D9000FAE700BFA001000801005A0010B50446A0
:100DA00005E0084B186800F067F8A4F50044B4F5B6
:100DB000004FF6D8044B186804FB00F000F05CF814
:100DC00010BD00BF8C00000890000008FEE7000086
:100DD00008B50268254BDA6142681A6282685A6275
:100DE000C2689A620269DA6242691A6382695A6366
:100DF000C2699A631E4A916AD963D16A1964516AB9
:100E00005964516B9964926BDA64F1EE103A13F005
:100E1000900F27D0026A154B1A65426A5A65826A9A
:100E20009A65C26ADA65026B1A66426B5A66826B11
:100E30009A66C26BDA66026C1A67426C5A67826CF9
:100E40009A67C26CDA67026DC3F88020426DC3F8FE
:100E50008420826DC3F88820C26DC3F88C20026E96
:100E6000C3F89020FFF7B2FF08BD00BFF0000008F4
:100E700000ED00E0000000000230800803D00130E7
:100E80000238FCD100BF00BF7047EFF3108072B68C
:100E9000704780F31088704708B562B6064A07218C
:100EA0000648FFF7CDFE07210448FFF74DFE4FF43B
:100EB0007A70FFF773FFF6E798000008800631406C
:100EC00053B94AB9002908BF00281CBF4FF0FF31B1
:100ED0004FF0FF3000F074B9ADF1080C6DE904CEAD
:100EE00000F006F8DDF804E0DDE9022304B0704705
:100EF0002DE9F047089E0D4604468846002B4DD14B
:100F00008A42944668D9B2FA82F252B101FA02F3E7
:100F1000C2F1200120FA01F10CFA02FC41EA0308B7
:100F200094404FEA1C45210CB8FBF5FE1FFA8CF7E4
:100F300005FB1E8341EA03430EFB07F199420BD9DF
:100F40001CEB03030EF1FF3080F01E81994240F24A
:100F50001B81AEF1020E63445B1AA4B2B3FBF5F041
:100F600005FB103344EA034400FB07F7A7420AD904
:100F70001CEB040400F1FF3380F00881A74240F22B
:100F8000058164440238E41B40EA0E4000211EB192
:100F9000D4400023C6E90043BDE8F0878B4208D95E
:100FA000002E00F0EE800021C6E900050846BDE8ED
:100FB000F087B3FA83F100294AD1AB4202D38242CF
:100FC00000F2F980841A65EB030301209846002E95
:100FD000E2D0C6E90048DFE702B9FFDEB2FA82F2EA
:100FE000002A40F09180A1EB0C054FEA1C471FFA44
:100FF0008CFE0121B5FBF7F307FB1350250C45EAE6
:1010000000450EFB03F0A84208D91CEB050503F1CF
:10101000FF3802D2A84200F2CB8043462D1AA4B278
:10102000B5FBF7F007FB105544EA05440EFB00FE44
:10103000A64508D91CEB040400F1FF3502D2A645F1
:1010400000F2BB802846A4EB0E0440EA03409EE772
:10105000C1F120078B4022FA07FC4CEA030C20FA6E
:1010600007F405FA01F31C43FD404FEA1C4900FA5E
:1010700001F3B5FBF9F8200C1FFA8CFE09FB18559B
:1010800040EA054508FB0EF0A84202FA01F20BD92E
:101090001CEB050508F1FF3A80F08880A84240F279
:1010A0008580A8F1020865442D1AA4B2B5FBF9F0B9
:1010B00009FB105544EA054500FB0EFEAE4508D974
:1010C0001CEB050500F1FF346CD2AE456AD902383D
:1010D000654440EA0840A0FB0294A5EB0E05A5423A
:1010E000C846A64656D353D05EB1B3EB080265EBB3
:1010F0000E0505FA07F722FA01F3CD401F43C6E9B2
:1011000000750021BDE8F087C2F1200320FA03F149
:101110000CFA02FC25FA03F395400D434FEA1C47F5
:101120001FFA8CFEB3FBF7F107FB11302B0C43EADF
:10113000004301FB0EF0984204FA02F408D91CEBBC
:10114000030301F1FF382FD298422DD902396344AD
:101150001B1AADB2B3FBF7F007FB103345EA0345AA
:1011600000FB0EF3AB4208D91CEB050500F1FF387C
:1011700016D2AB4214D902386544ED1A40EA014157
:1011800038E73146304607E78646E5E61846FAE690
:101190004B45A9D2B9EB020864EB0C0E0138A3E76A
:1011A0004046EAE7204694E74146D1E7D0467BE750
:1011B000023B654432E7084609E76444023842E7E7
:1011C000704700BF02440346934200D1704703F8C2
:1011D000011BF9E7F8B500BFF8BC08BC9E46704794
:1011E000F8B500BFF8BC08BC9E4670470000204020
:1011F00000002440000000400000000000002340E8
:10120000000030400000314000009F4000002240BC
:101210000000104000009D402020202020101010D1
:10122000101D1D8017007500FF030602060036041E
:10123000102000007FC0000000040000000000003B
:101240000019324B647D0000000000804000080B54
:10125000100000000000FF012002001F00800004B9
:10126000FF081018001000140018001C4044484CDF
:1012700050000000081000000800000004000000FA
:1012800004100000001200000421000000210000F2
:101290000016000040114002C41300138013A01375
:1012A00040138813A81320001C0000000300000056
:1012B00001000000010000000000000005036000C4
:1012C0000400000001000000000000000100000018
:1012D0000604600008000000140300081109001053
:0412E000000000000A
:0812E4000CFCFF7F010000007B
:1012EC000000001000000008800000000C1300102B
:0812FC0080000008540000000E
:0813040084010008B0010000A3
:10130C0000093D0000127A0000093D000000D007E2
:10131C00A00F000004000000010000000A00000003
:10132C0000000000010000000100000000000000AF
:10133C0000000000000000000000000000000000A1
:10134C00000000000000000000000000A5000010DC
:04135C0081000010FC
:10136000000000000000000000000000000000007D
:08137000000000000000000075
:0400000510000A3F9E
:00000001FF
