:020000041000EA
:1000000000200008B70B00100D000000190C0010B4
:1000100000000000000000000000000000000000E0
:10002000000000000000000000000000150C00109F
:100030000000000000000000150C0010150C00105E
:10004000150C0010150C0010150C0010150C0010EC
:10005000150C0010150C0010150C0010150C0010DC
:10006000150C0010150C0010150C0010150C0010CC
:10007000150C0010150C0010150C0010150C0010BC
:1000800010B5064C2378002B07D1054B002B02D06E
:10009000044800E000BF0123237010BD2C010008BC
:1000A000000000007C140010044B10B5002B03D09E
:1000B0000349044800E000BF10BDC0460000000036
:1000C000300100087C140010014B18607047C046D6
:1000D00048010008034B1B68002B00D07047014B00
:1000E0001860FBE74C01000870B504002348006865
:1000F000002840D0214805682C2060432818FF24A0
:1001000025001D4005601E0A344044601B0C8360BE
:100110001B4B1C683323E35C9D4200D301BE184B8C
:100120001C68BA23E35A6B43256AAC4663440361F7
:1001300043683425645DA34200D301BE104C24689B
:10014000246A80335B01E418446183681D0C00D08D
:1001500001BE1D0C00D001BE1B041D0C2B43A3606F
:10016000C261016200238361049B002B02D0002244
:100170009B5E838170BD01BEBCE7C0464C01000898
:1001800048010008F0B58FB0041E41D06368032B0E
:1001900000D901BEE36A002B3CD0236B002B3BD07F
:1001A00007AA1300210061C961C321C921C302AE9E
:1001B000230014333100A1CBA1C121CB21C10821DF
:1001C000535E0CAD2B80079B9BB217336B80089B53
:1001D0000D930B9B0A980095A26AE16AFFF784FFD2
:1001E000069B0598002200920021FFF77DFF216BFE
:1001F000280000F095F90022AB5E002B06DB1F22E1
:1002000013401E3A9A401300044A13600FB0F0BD29
:1002100001BEBBE701BEC0E701BEC1E700E100E0EF
:1002200070B582B004000023019300282BD023690D
:10023000002B2AD06369002B29D0236A002B28D0F9
:100240006369DD682A0C0BD012041A601B682069F0
:10025000204B1A68BC23D3581B181B68002B1ADBD1
:100260002D042A0C002D0AD063691A601B68636A8A
:10027000002B2AD09847002363620023A36163699F
:100280001B6802B070BD01BED1E701BED2E701BE5E
:10029000D3E701BED4E701A900F056F800280ED13B
:1002A00001980268160CFF231340E2699A4207D9AD
:1002B0009B00226AD358002B02D0984700E000260A
:1002C0003100206900F01AF8CAE7A36A002BD4D0E5
:1002D0009847D2E74801000810B50200064B1B689A
:1002E000002B07D0044B18682C235343C018FFF78A
:1002F00097FF10BD01BEF5E74C010008084B1A68D6
:10030000BC23D3581B181B68002B07DA0B0C00D03A
:1003100001BE0904090C4160002070470148FCE758
:100320004801000801008A000368002B08DAC26057
:100330000B0C00D001BE0904090C8160002070473D
:100340000048FCE701008A0000290BD0074B1A681F
:10035000BC23D3581B181B68002B05DAC3680B603D
:100360000020704701BEF1E70148FAE748010008A4
:1003700001008A0070B50C001D4B1A683323D35C52
:10038000834230D9002930D00B68DB0601D01948F0
:100390002AE03323D35C984200D301BE144B1B6880
:1003A0001D6ABA229B5A58432D18134E3560236894
:1003B000DA080021606800F0D3FF00212800FFF771
:1003C0009DFF306822000021FFF7AEFF002801D01A
:1003D0000A4809E0084B18680021FFF78FFF002842
:1003E00002D0064800E0034870BD0248FCE7C04662
:1003F0004801000803018A005001000801018A0039
:1004000010B50B00002A05D0002A1DD0002B15D1F5
:100410000E4810BD0029F7D10D4A116833228A5CBD
:10042000904200D301BE0A4A11680A6ABA24095BE5
:100430004843121807490A601800EAE706490B60AA
:100440004A60FFF797FFE4E70048E2E703018A000C
:100450004801000850010008D40000080749C022E4
:1004600052008B589B009B088020C00503438B5093
:10047000885880231B0603438B507047000026409A
:1004800030B5194B1B682C229A5C1F2A15D884089A
:100490000722250095432A1E22D103321040C000B6
:1004A000FC3282401B682033A4001B191C68814069
:1004B000614011406140196012E03C229A5E0BB22B
:1004C0009A420ED007230340074A12681268802020
:1004D0000006184380239B019C4661448900885094
:1004E00030BD01BEEEE7C04648010008094B9A68DE
:1004F000094B9A4204D010308000084BC058704716
:10050000002905D01030044A830098589950F6E726
:1005100001BEF7E700ED00E0000000080000001059
:10052000F0B5C64600B582B0041E01914FD04368B5
:10053000032B00D901BE0023E05E002825DA254EFA
:100540000023E25E6168002A24DB9308224DC03359
:100550009B005859804603273A40D200FF2084462A
:10056000070097404046B8430700890160460840AD
:10057000904038435851194B9A68194B9A4220D0F1
:10058000300002B080BCB846F0BD6188FFF778FF4C
:100590000026D5E70F231340083B9B0806339B003A
:1005A0000E48844663445F6803200240D200FC305A
:1005B00005009540AF43890108409040384358609A
:1005C000D9E70023E05E0199FFF790FFD8E7014EDD
:1005D000D6E7C0460100560000E100E000ED00E073
:1005E00000000008044B1A681368882152589B18B1
:1005F0001868000AC0B2704748010008044B1A6826
:100600001368882152589B181868000E7047C0461E
:1006100048010008064B1A684023D35C834200D887
:1006200001BEE0308000034BC3580F2018407047D4
:100630004801000800002640074B1A684023D35C9D
:10064000834200D801BEE0308000044BC3581B0930
:10065000032018407047C0464801000800002640AB
:10066000034B1B6904201840431E9841C0B27047D9
:10067000000027400020704700207047014B186899
:100680007047C04654010008084AA623DB00D25830
:1006900003231340032B06D0044AA623DB00D358C0
:1006A0000120184070470220FCE7C04600002640A9
:1006B00010B5FFF7E9FF022801D0002010BD014B63
:1006C0001868FBE75801000803000C4A11683E2235
:1006D0008A5C824200D801BE1A00D03292000849DA
:1006E000505807221040042800D07047C0339B00A8
:1006F0005B581B300340E1301843F6E7480100081F
:100700000000264010B52A4B1A683E23D35C834272
:1007100000D801BEFFF7D8FF88235B00984231D094
:1007200012D802282BD004D903280BD1FFF7A2FF3F
:100730003CE0002839D0012802D1FFF79FFF35E0C7
:10074000002033E0002031E089235B00984229D06B
:100750001423FF33984206D1164A174BD358002B67
:100760001DDB002022E01223FF33984205D1FFF762
:1007700077FF002810D1002018E0002016E0FFF7D6
:1007800097FF13E00B4A0D4BD358002B01DB0020E1
:100790000CE08020000209E08020000206E08020BA
:1007A000000203E0FFF768FF00E0054810BDC04607
:1007B00048010008000026403C0500000C05000030
:1007C00000127A00024AB023DB00D058C00F7047F5
:1007D0000000264010B5002832D01A49B023DB00B3
:1007E000CB589A03920B02608022520413405A1E87
:1007F0009341C371144BCB58DA04D20C82801B0C8A
:10080000DB05DB0D0381B123DB00CB580F22140085
:100810001C4084721C092240C2721A0AD204D20CF3
:1008200082811B0F032213408373084BCB58190A94
:1008300004320A4082711B0CDB05DB0D038210BD04
:1008400001BECAE700002640840500008C050000B8
:100850000138074B1A683F23D35C834200D801BE9E
:100860008130FF308000034BC058C00F7047C04636
:1008700048010008000026400138114B1A683F2348
:10088000D35C83421AD98130FF3080000D4BC358AE
:100890007F221A400A70180A1F2210404870180C54
:1008A00002408A70802212051A40501E8241CA708E
:1008B0001B0F032213400B71002070470248FCE716
:1008C000480100080000264001004A00F0B587B04A
:1008D0001422002101A800F043FD01A8FFF77AFFD0
:1008E000FFF770FF002807D001AB9B7B022B01D0E4
:1008F000012302E0002300E0002301AA019E948866
:100900002000D279002A1FD00225002B1ED00028FB
:100910001DD00020FFF7F6FE32000023002100F07A
:10092000FBFB06000F002A0000232000002100F03E
:10093000F3FB02000B00CC07400820434908801954
:10094000794100F0C9FB02E00125DEE7002007B095
:10095000F0BD0000F0B585B004002E4B1B683F22AF
:100960009A5C002A53D0002852D03E229B5C8342DE
:1009700000D801BE274B1A683F23D35CA34201D2A3
:10098000002045E00522002102A800F0E9FC02A9B0
:100990002000FFF771FF2000FFF75AFF002807D063
:1009A00002AB1B79022B01D0012302E0002300E0FF
:1009B000002302AA1678577838009578002B24D0A7
:1009C000002F25D0002D01D1280021E02000FFF7C5
:1009D00099FE32000023002100F09EFB009001915F
:1009E0002A0000233800002100F096FB02000B00D3
:1009F000CC07400820434908009C019D24184D4124
:100A00002000290000F068FB02E0002000E0002048
:100A100005B0F0BD4801000810B504000D4B1A6880
:100A20003E23D35C834200D801BE002C09D0094B81
:100A30001A683F23D35CA34208D22000FFF762FE6E
:100A400010BDFFF743FF0028FAD1F6E72000FFF7BB
:100A500081FFF8E74801000870B50600FFF7ECFDDC
:100A60000500012484403000FFF7D4FDFFF7D4FFD8
:100A700064082018E84070BD10B50020FFF72CFC7A
:100A800010BD704710B50020FFF7E6FF041E00D12F
:100A900010BD144B1860FFF7B1FD411C200000F0A1
:100AA0008FFA0400104B1860FFF79CFD411C2000DA
:100AB00000F086FA04000D4B1860013C0C49200040
:100AC00000F07EFA01300B4B1870FA2189002000EB
:100AD00000F076FA0130084B1860C003074B18602D
:100AE000D6E7C0468400000888000008800000089F
:100AF00040420F0094000008900000088C0000089D
:100B000010B52348FFF7E0FA224CB022D200A358D8
:100B10005B005B08A350E0218900635830208343C9
:100B2000635080235B04A3501B4B1C4AE2500433E8
:100B3000A0229201E2501A4BFF22E250FFF78EFCF6
:100B4000C0225200A35801218B43A350FFF799FF05
:100B5000FFF798FF134B1B68BA20195ACA00521AA4
:100B6000196A8C4662440021D1601A6A185AC3007F
:100B70001B1AD31859600C4A80310320FFF740FC40
:100B80000A48FFF7A7FA0A48FFF7FCFA10BDC0466B
:100B900088130010000026408405000001000200B8
:100BA0008C05000048010008DC0000085C0100081A
:100BB000481400107047FFF7FDFF72B60F4C104D40
:100BC000AC4209DA21686268A368043B02DBC858BA
:100BD000D050FAE70C34F3E70A490B4A0020521AC6
:100BE00002DD043A8850FCDC084809490860BFF37C
:100BF0004F8FFFF785FF00F0CFF9FEE78814001054
:100C0000A01400102C010008DC02000800000008FD
:100C100008ED00E0FEE7FEE700B50420714608425B
:100C200002D0EFF3098002E0EFF30880043000F017
:100C300089F9FEE710B5072900D901BE1F2314006A
:100C40009C4300D001BE104B1B689C69001BC0096F
:100C50005B690001181803290AD80468C9001F231A
:100C60008B409C431F231A408A402243026010BDE0
:100C700004394468C9001F238B409C431F231A403A
:100C80008A4022434260F2E748010008072900D960
:100C900001BE012A00D901BE01238B40002A01D1E7
:100CA000436070478360FCE7072900D901BE012338
:100CB0008B40C3607047000030B50400072900D99D
:100CC00001BE0F231000984303D1012A01D0092A45
:100CD00000D101BE8900074B18688123C05C001950
:100CE0000468723B1D008D40AC4313408B4023438E
:100CF000036030BD4801000830B50300072900D962
:100D000001BE012A00D901BE074804688220205C88
:100D1000C018046801231D008D40AC4313408B4074
:100D20002343036030BDC0464801000830B50829A0
:100D300000D901BE012A00D901BE846901231D002A
:100D40008D40AC4313408B402343836130BD000092
:100D500030B50300082900D901BE032A00D901BE1D
:100D60004900074804688020205CC01804680323F9
:100D70001D008D40AC4313408B402343036030BDC6
:100D800048010008F8B5CE46474680B507000E007A
:100D90001400002800D1B1E0002A00D1B0E00729FA
:100DA00000D901BE2368012B00D901BE63680F2260
:100DB0001900914303D1012B01D0092B00D101BEB1
:100DC000237A1F22934300D001BEE368032B00D98E
:100DD00001BE2369012B00D901BE6369012B00D933
:100DE00001BE236A012B00D901BE636A012B00D921
:100DF00001BEA36A012B00D901BEE36A032B00D90F
:100E000001BE236B072B00D901BEE369032B00D978
:100E100001BEA369012B00D901BE01252B00B340FF
:100E20007000103003229146110081400B439C4614
:100E3000344B9846832341460968C95CC9190B683D
:100E4000624693439C46A3692B40B34062461343DA
:100E50009C46E2694B4613401A00824063461343A6
:100E60000B60227A31003800FFF7E4FE626831003F
:100E70003800FFF721FFE26831003800FFF768FF14
:100E8000226931003800FFF751FF626931003800F4
:100E9000FFF732FF43461A688423D25CBA18106801
:100EA0007B3398469843236A1D40636A5B009C46E7
:100EB000022361460B401D43A36A9B009C4604230A
:100EC00061460B402B43E16AC90018250D402B43B6
:100ED000216B4D01414629400B43B100FE25AD0079
:100EE00029408B4003431360226831003800FFF72C
:100EF000CDFE0020C0BCB946B046F8BD0248F9E7B7
:100F00000148F7E74801000801005A0010B5040045
:100F100006E0084B186800F02FF8074B9C46644425
:100F200080231B029C42F4D8044B1868604300F0F5
:100F300023F810BD8C0000080080FFFF900000081F
:100F4000FEE7000010B50A4B0268DA6142681A62D7
:100F500082685A62C2689A620269DA6242691A63F6
:100F600082695A63C2699A63FFF7EAFF10BDC046FF
:100F7000F0000008000000000230800803D00130BB
:100F80000238FCD1C046C0467047EFF3108072B6FD
:100F9000704780F31088704710B562B6064A072183
:100FA0000648FFF7EFFE07210448FFF77DFEFA2011
:100FB0008000FFF7ABFFF6E798000008800631409D
:100FC000002243088B4274D303098B425FD3030A88
:100FD0008B4244D3030B8B4228D3030C8B420DD39B
:100FE000FF22090212BA030C8B4202D31212090229
:100FF00065D0030B8B4219D300E0090AC30B8B4267
:1010000001D3CB03C01A5241830B8B4201D38B0314
:10101000C01A5241430B8B4201D34B03C01A5241B9
:10102000030B8B4201D30B03C01A5241C30A8B42FC
:1010300001D3CB02C01A5241830A8B4201D38B02E7
:10104000C01A5241430A8B4201D34B02C01A52418B
:10105000030A8B4201D30B02C01A5241CDD2C309FD
:101060008B4201D3CB01C01A524183098B4201D379
:101070008B01C01A524143098B4201D34B01C01A64
:10108000524103098B4201D30B01C01A5241C308DC
:101090008B4201D3CB00C01A524183088B4201D34B
:1010A0008B00C01A524143088B4201D34B00C01A37
:1010B0005241411A00D20146524110467047FFE7A3
:1010C00001B5002000F006F802BDC0460029F7D0A7
:1010D00076E770477047C046002B11D1002A0FD128
:1010E000002900D1002802D00021C943080007B41C
:1010F000024802A14018029003BDC046D9FFFFFF7D
:1011000003B4684601B5029800F034F8019B9E468E
:1011100002B00CBC7047C046F0B5CE46474680B51D
:10112000070099463B0C9C4613041B0C1D000E0047
:1011300061460004140C000C45434B43604361437B
:10114000C0182C0C20188C46834203D980235B02E4
:101150009846C444494679437243030C63442D04C2
:101160002D0CC918000440198918C0BCB946B046F6
:10117000F0BDC046F0B557464E464546DE46E0B5A2
:1011800004000D009246994683B08B4230D82DD092
:101190004946504600F0BAF829000600200000F049
:1011A000B5F8331A9846203B9B4633D45A465346EB
:1011B000934042461F00534693401E00AF423AD828
:1011C000AF4200D178E05B46A41BBD41002B00DAA2
:1011D00075E0002200230092019301235A469340B8
:1011E0000193012342469340009328E08242CFD9E5
:1011F00000220023009201930C9B002B01D01C6065
:101200005D600098019903B0F0BCBB46B246A946A8
:10121000A046F0BD424620239B1A5246DA40414682
:1012200013004A468A40170042461F4353469340E4
:101230001E00AF42C4D9002200230092019343460E
:10124000002BD9D0FB0772081A4346467B080EE0F4
:10125000AB4201D1A2420CD8A41A9D41012024190D
:101260006D410021013E24184D41002E06D0AB42B5
:10127000EED9013E24196D41002EF8D10098019954
:101280005B4600196941002B24DB2B005A4644467B
:10129000D3402A00E2401C005B461500002B2ADBED
:1012A00026009E40330026004746BE403200801A8A
:1012B0009941009001919FE7A342BCD883E7424641
:1012C000202300219B1A0022009101920122DA4082
:1012D000019286E7424620239B1A2A0046469A40FE
:1012E0002300F340444613432A00E2401C005B46BF
:1012F0001500002BD4DA42462F0020232600974009
:101300009B1ADE403B003343CDE7C04610B50029B1
:1013100003D100F007F8203002E0080000F002F8E6
:1013200010BDC0461C2101231B04984201D3000CB0
:1013300010391B0A984201D3000A08391B09984248
:1013400001D30009043902A2105C40187047C0465E
:10135000040302020101010100000000000000007E
:1013600003008218934200D1704719700133F9E7E6
:10137000F8B5C046F8BC08BC9E467047F8B5C046F4
:10138000F8BC08BC9E467047000020400000244086
:10139000000000400000000000002340000030403A
:1013A0000000314000009F4000002240000010403B
:1013B00000009D402020202020101010101D1D80B6
:1013C00017007500FF030602060036041020000017
:1013D0007FC0000000040000000000000019324B34
:1013E000647D0000000000804000080B1000000039
:1013F0000000FF012002001F00800004FF081018F9
:10140000001000140018001C4044484C500000001C
:101410000810000008000000040000000410000094
:10142000001200000421000000210000001600004E
:1014300040114002C41300138013A01340138813FB
:10144000A81320001C0000000300000001000000A1
:10145000010000000000000005036000040000001F
:101460000100000000000000010000000604600010
:1014700008000000BC020008790A0010000000000B
:08148000F4FCFF7F01000000F5
:10148800000000100000000880000000A8140010F0
:08149800800000085400000070
:0814A0002C010008B00100005E
:1014A80000093D0000127A0000093D000000D00745
:1014B800A00F000004000000010000000A00000066
:1014C8000000000001000000010000000100000011
:1014D8000000000000000000000000000000000004
:1014E800000000000000000000000000A90000103B
:0414F800810000105F
:1014FC0000000000000000000000000000000000E0
:08150C000000000000000000D7
:0400000510000BB725
:00000001FF
